:020000040800F2
:10000000A80600209D1A0008A51A0008A71A0008D3
:1000100000000000000000000000000000000000E0
:10002000000000000000000000000000A91A000805
:100030000000000000000000AB1A0008AD1A000824
:10004000AF1A0008AF1A0008AF1A0008AF1A00086C
:10005000AF1A0008AF1A0008AF1A00083F190008CD
:1000600000000000AF1A0008AF1A0008AF1A00081D
:10007000AF1A0008AF1A0008AF1A0008AF1A00083C
:10008000AF1A00080000000000000000AF1A0008CE
:1000900000000000AF1A0008AF1A0008AF1A0008ED
:1000A00000000000AF1A0008000000006F180008F0
:1000B00000F002F800F04BF80CA030C80838241803
:1000C0002D18A246671EAB4654465D46AC4201D190
:1000D00000F03DF87E460F3E0FCCB6460126334277
:1000E00000D0FB1AA246AB46334318475820000005
:1000F00078200000103A02D378C878C1FAD85207A5
:1001000001D330C830C101D504680C6070470000CD
:100110000023002400250026103A01D378C1FBD823
:10012000520700D330C100D50B60704710B5642969
:1001300002D101F019FE10BD782902D101F04AFE6A
:1001400010BD002010BD1FB51FBD10B510BD01F0C2
:10015000BBFF1146FFF7F7FF00F020F801F0D3FFD7
:1001600003B4FFF7F2FF03BC01F01AFB01B5012154
:10017000684601F06DFB08BD10B5302001F0D1FAE2
:1001800001F090FAE120400201F017FB174801F05E
:100190005CFB01F09FFB01F0EDFB10BD0024FFF7BD
:1001A000EBFF13A001F09CFD1FE02146641C16A08C
:1001B00001F096FD1848018818A001F091FD012179
:1001C0000920C00600F0E3F8054629461AA001F010
:1001D00087FD01F07AFAFF20F53001F085FA01F091
:1001E0007BFAFF20F53001F07FFADEE76D010008B1
:1001F0000D0A0D0A2053544D333246303330463405
:1002000050362064656D6F000D0A0D0A20636F750E
:100210006E743A25640000002C0000200D0A205066
:100220004131BFDAB2C9BCAFB5C4B5E7D1B9CAFD77
:10023000D6B5A3BA256400000D0A205041303A25F6
:100240007800000010B504460920C006844209D198
:100250000121480400F095FB00210120400400F03A
:1002600090FB30E06E48844208D10121000200F08A
:1002700088FB0021200200F084FB24E069488442CE
:1002800008D10121000200F07CFB0021200200F0D7
:1002900078FB18E06448844209D10121080500F088
:1002A00070FB00210120000500F06BFB0BE05F48B4
:1002B000844208D10121880500F063FB0021012060
:1002C000800500F05EFB10BDF0B50A46002100235A
:1002D000002400BF3DE001258D402B4615681D40E0
:1002E0002C469C4234D11579012D02D01579022D6E
:1002F00016D185684F000326BE40B5438560557909
:100300004E00B540866835438560858801268E405D
:10031000B5438580858896798E40B6B23543858011
:1003200005684F000326BE40B543056015794E00B1
:10033000B540066835430560C5684F000326BE40DA
:10034000B543C560D5794E00B540C6683543C56034
:10035000491C1029BFD3F0BD35490160002101714E
:100360000221417100218171C171704708B50122DC
:1003700012040092009A0A430092009AC261C1617D
:10038000009AC261C2690092C269009208BD024629
:100390000020138A0B40002B01D0012000E0002038
:1003A00070470146088A704702460020938A0B4036
:1003B000002B01D0012000E0002070470146888A10
:1003C00070478161704701857047002A01D08161C3
:1003D00000E00185704781827047F0B5002300245A
:1003E0004D07EE0E1546B5402B46CD10AE00054626
:1003F0002035AD594E07F70E0F26BE40B543CE103F
:10040000B60007462037BD51CD10AE003D46AD5970
:100410001D432C46CD10AD003E467451F0BD00008A
:100420000004004800080048000C00480014004880
:10043000FFFF0000FD48006801210843FB490860F8
:1004400008464068FA490840F8494860084600688C
:10045000F8490840F5490860084600680121890408
:100460008843F2490860084640683F2109048843F0
:10047000EE4948600846C06A00090001C8620846A3
:10048000006BFF2154318843E84908630846406BFC
:100490004008400048630020886070470021E34A1C
:1004A000917011468870704710B5024600210023F4
:1004B00000205111002902D1DC4C23680BE00129F6
:1004C00002D1DA4C236A06E0022902D1D74C636AD2
:1004D00001E0D64C636BD106C90E01248C401C4050
:1004E000002C01D0012000E0002010BD38B5002014
:1004F00000900024002500BF1120FFF7D5FF05461E
:100500000098401C0090052109030098884201D002
:10051000002DF1D01120FFF7C7FF002801D00124E2
:1005200000E00024204638BD01460020BF4A106884
:10053000F82302469A431046CA001043BB4A106093
:100540007047002806D0B949096801221143B74A0B
:10055000116005E0B549096849084900B34A1160CE
:10056000704701460020B14A506BF82302469A4377
:100570001046CA001043AD4A50637047002806D0A9
:10058000AA49496B01221143A84A516305E0A749D2
:10059000496B49084900A54A51637047002806D0B5
:1005A000A249496B04229143A04A516305E09F4947
:1005B000496B042211439D4A516370479B49096A64
:1005C00049084900994A11621146096A0422914377
:1005D000964A11621146096A0143116270479349B4
:1005E000096A18229143914A11621146096A01432E
:1005F00011627047002806D08C49496A01221143D4
:100600008A4A516205E08949496A49084900874A8E
:1006100051627047854A52683D231B049A43834BBD
:100620005A601A46526803460B431A437F4B5A607E
:100630007047002807D07D4909680122120611433E
:100640007A4A116006E0794909680122120691434D
:10065000764A1160704701460020744AD06A00094A
:10066000000102460A431046704AD06270470028D3
:1006700007D06E4909680122D20411436B4A116008
:1006800006E06A4909680122D2049143674A116071
:1006900070476649C871704701460020634A506838
:1006A0008008800002460A431046604A5060704746
:1006B0005E4840680C2108407047014600205B4AB4
:1006C0005068F02302469A43104602460A431046F9
:1006D000564A5060704701460020544A506807232C
:1006E0001B0202469A43104602460A4310464F4AEE
:1006F000506070474D4949680122920391434B4A2B
:1007000051601146496882B21143484A516011460E
:10071000096B92159143454A11631146096B020C0E
:100720001143424A116370474049096B402291438B
:100730003E4A11631146096B0143116370473B49FF
:10074000096B10229143394A11631146096B014329
:10075000116370473549096B89088900334A116371
:100760001146096B014311637047FEB5044600252D
:10077000002600200190009000272C4840680C21A2
:1007800008400546002D04D0042D05D0082D28D1A1
:1007900005E02948206027E02748206024E023481E
:1007A00040680F218904084006462048406801211E
:1007B000090408400190B00C861C0198002803D160
:1007C0001E48704320600BE01848C06A0007000F05
:1007D000401C00901848009901F028FB70432060ED
:1007E00002E01548206000BF00BF10484068F021BB
:1007F000084005462D091248475D2068F8406060B2
:100800000A48406807210902084005462D0A0C489D
:10081000475D6068F840A0600448006BFF2101312B
:100820000840884210D00748E0601BE000100240FA
:100830000CB8FFF8FFFFF6FE00127A0000093D0039
:1008400000000020809FD500754840680121890381
:100850000840884203D0A0684008E06002E0A06839
:100860008008E0606E48006B40210840402802D0BC
:100870006C48206102E00120C00320616848006BE1
:1008800010210840102802D06748606101E020680C
:1008900060616348006B8007800F002802D1A06868
:1008A000A06119E05E48006B8007800F012802D12B
:1008B0002068A06110E05A48006B8007800F022872
:1008C00002D18003A06107E05548006B8007800FCC
:1008D000032801D15448A061FEBD5149096A014372
:1008E0004F4A11627047002807D04D49096A01221A
:1008F000D20311434A4A116206E04949096A0122BA
:10090000D2039143464A11627047002807D04449F8
:10091000096A012212041143414A116206E040496A
:10092000096A0122120491433D4A1162704700296D
:1009300005D03B4A52690243394B5A6104E0384AB8
:1009400052698243364B5A617047002905D0344AB8
:1009500092690243324B9A6104E0314A92698243C0
:100960002F4B9A617047002905D02D4AD269024366
:100970002B4BDA6104E02A4AD2698243284BDA61C0
:100980007047002905D0264A926A0243244B9A6296
:1009900004E0234A926A8243214B9A6270470029FD
:1009A00005D01F4AD26802431D4BDA6004E01C4A9E
:1009B000D26882431A4BDA607047002905D0184A82
:1009C00012690243164B1A6104E0154A1269824308
:1009D000134B1A617047002905D0114A527A02431D
:1009E0000F4B5A7204E00E4A527A82430C4B5A72F1
:1009F00070470B48406A01210906084308494862CC
:100A0000704701460020064A92680A40002A01D039
:100A1000012000E000207047014988727047000003
:100A2000001002401280000000127A0010B5044647
:100A3000B548844207D101214015FFF7B0FF0021DE
:100A40006015FFF7ACFF10BD10B50022C268AF4BB8
:100A50001A400C7964030B6823438C682343CC68E9
:100A600023430C6923434C6923431A43C26010BDDE
:100A70000021016001718160C160016141617047C5
:100A8000002904D0826801231A43826003E082684F
:100A900002231A4382607047002A03D003690B4384
:100AA000036102E003698B4303617047002905D0AD
:100AB000C2680123DB031A43C26004E0C268012359
:100AC000DB039A43C2607047002905D0C268012346
:100AD0009B031A43C26004E0C26801239B039A434C
:100AE000C2607047002905D0C2680123DB051A43A4
:100AF000C26004E0C2680123DB059A43C26070470C
:100B00000B0413430362704710B50A460021C16805
:100B10001F24A4060B46A34319460B46134319464C
:100B2000C16010BD002905D0C26801239B051A438E
:100B3000C26004E0C26801239B059A43C26070470B
:100B4000002807D0724989680122D2051143704AF2
:100B5000916006E06E4989680122D20591436C4A92
:100B600091607047002807D0694989680122920581
:100B70001143674A916006E0654989680122920540
:100B80009143634A91607047002807D060498968A3
:100B90000122120611435E4A916006E05C498968B1
:100BA0000122120691435A4A9160704710B50B46D4
:100BB0000021846A1C43846200BF0C461443214612
:100BC000416110BD002905D0C26801235B031A43AF
:100BD000C26004E0C26801235B039A43C2607047AD
:100BE000002905D0C26801231B041A43C26004E037
:100BF000C26801231B049A43C2607047002905D0D4
:100C0000C26801231B031A43C26004E0C2680123C7
:100C10001B039A43C260704730B501460020002292
:100C200000238C680125ED072C438C6000BF8C6885
:100C3000E30FDB07521C0F242403A24201D0002B38
:100C4000F5D18C68E40FE407002C01D1086C00E0BA
:100C5000002030BD81681022114381607047816897
:100C600004221143816070470146086C80B27047CE
:100C7000002904D0C26801231A43C26003E0C2689D
:100C800052085200C2607047C26802239A43C26091
:100C9000C2680A43C2607047002A03D043680B430E
:100CA000436002E043688B434360704730B50246BF
:100CB00000200023012424060C40002C05D0946859
:100CC00001252D06AC43234600E013681C460C406A
:100CD000002C01D0012000E0002030BD01607047F1
:100CE00010B502460020002354680C4023461468C7
:100CF0000C40002C03D0002B01D0012000E000208C
:100D000010BD0160704700000024014003D2FFFFC6
:100D1000002701400168584A11400160002101602C
:100D200041608160C1605549884208D15349083902
:100D300049680F221143514A083A516035E04F4942
:100D40001431884208D14D4908394968F0221143CD
:100D50004A4A083A516028E048492831884209D176
:100D60004649083949680F2212021143434A083A9A
:100D700051601AE041493C31884209D13F49083964
:100D800049680F22120311433C4A083A51600CE0B3
:100D90003A495031884208D13849083949680F2208
:100DA00012041143354A083A5160704710B50022C9
:100DB0000268334B1A400C6A8B6823430C69234347
:100DC0004C6923438C692343CC6923434C6A2343F6
:100DD0008C6A23431A430260CB6843600B688360CC
:100DE0004B68C36010BD0021016041608160C1603B
:100DF000016141618161C16101624162816270474B
:100E0000002904D0026801231A43026003E002684B
:100E1000194B1A40026070474160704701464868AC
:100E200080B27047002A03D003680B43036002E0DE
:100E300003688B4303607047014600200F4A083A5D
:100E400012680A40002A01D0012000E0002070470B
:100E50000A4908394860704701460020074A083AA5
:100E600012680A40002A01D0012000E000207047EB
:100E70000249083948607047FEFF00000800024040
:100E80000F80FFFF3E483F490860002048608860AF
:100E9000C8603D484861704700213A498279002A7C
:100EA00035D00A46126803689A430B461A600A4610
:100EB000526803689A430B465A60027951180A68CF
:100EC00003681A430A602F4A926803689A432D4BBD
:100ED0009A601A46D26803689A432A4BDA604279CC
:100EE000102A0CD11A46926803681A43254B9A605F
:100EF0001A46D26803681A43224BDA600DE0214992
:100F0000427951180A6803681A430A6005E00279B9
:100F100051180A6803689A430A607047002101600B
:100F200001710C21417100218171704715490969D6
:100F30000143144A1161704701460020114A526969
:100F40000A40002A01D0012000E0002070470D492E
:100F5000486170470146002000220A4B1B680B4085
:100F60001A46084B5B690B40002B03D0002A01D0C6
:100F7000012000E0002070470249486170470000EE
:100F80000000940F00040140FFFF6B0000218278F5
:100F9000002A27D0274A03231B02D21803789B106C
:100FA0009B00D15802789207D30EFF229A400B463D
:100FB0009343194642789207120E03789B07DB0E83
:100FC0009A4011431B4A03231B02D21803789B103B
:100FD0009B00D1500278D306DB0E01229A40154BBC
:100FE0001A6007E00278D306DB0E01229A40114B0B
:100FF00080331A607047002905D00F4A12690243F6
:101000000D4B1A6104E00C4A126982430A4B1A61C3
:101010007047042806D10949096904221143074A87
:10102000116105E00549096904229143034A1161F0
:101030007047000000E100E000ED00E000E000E0AB
:101040003A4800688007800F3849086000208860AF
:1010500000213648C160016141618069FF21013191
:101060000843324988617047014600202F4A1068C2
:101070008008800002460A4310462C4A10607047E0
:10108000002905D0294A12680243284B1A6004E05F
:10109000264A12688243254B1A607047002905D002
:1010A000224A12680243214B1A6004E01F4A126868
:1010B00082431E4B1A60704730B500228B071C0F0D
:1010C0000F23A3401A46194B08338C10A4001B5958
:1010D0009343164C08348D10AD00635123468C1099
:1010E000A4001B598C07250F0446AC4023430F4C2A
:1010F00008348D10AD00635130BD0C49896901433E
:101100000A4A9161704701460020084A9269FF230C
:1011100001331A40002A01D0012000E0002070476E
:10112000024989690143014A916170470000014009
:1011300010B50446F748844209D101218803FFF71E
:101140002EFC002101208003FFF729FC0BE0F24870
:10115000844208D101214804FFF72FFC002101201F
:101160004004FFF72AFC10BDF0B589B005460E46D5
:1011700000240020089000BF00BF286840084000FD
:1011800028606C6803210903204688430446B06840
:1011900004436C602C68E1480440F16870680843BF
:1011A0003169084304432C60AC68032109022046DE
:1011B0008843044670690443AC606846FFF7D5FA7B
:1011C000D448854202D10698089001E00298089020
:1011D00028680121C9030840002809D0326851005D
:1011E0001923089A5A43104600F020FE074608E0EB
:1011F000326891001923089A5A43104600F016FEEF
:1012000007466421384600F011FE040120096421DC
:101210004843381A079028680121C903084000286C
:101220000AD00799C90008463230642100F0FEFD5B
:101230004007400F044309E007990901084632308E
:10124000642100F0F3FD0007000F0443AC8109B0F6
:10125000F0BD4B21C9010160002141608160C16086
:101260000C21016100214161704710B500224268E4
:101270000F2424021346A3431A464C680B682343E9
:101280008C682343CC6823431A43426010BD00217D
:10129000016041608160C1607047002904D002682C
:1012A00001231A43026003E0026852085200026000
:1012B0007047002A03D003680B43036002E0036811
:1012C0008B4303607047002905D002680123DB03CC
:1012D0001A43026004E002680123DB039A430260C0
:1012E0007047002905D082680123DB021A4382601F
:1012F00004E082680123DB029A4382607047002980
:1013000005D042680123DB041A43426004E04268CE
:101310000123DB049A4342607047002905D04268EC
:1013200001239B041A43426004E0426801239B04AA
:101330009A4342607047002A03D043680B434360DE
:1013400002E043688B4343607047002905D0426840
:101350000123DB031A43426004E042680123DB03FC
:101360009A4342607047002905D042680123DB059B
:101370001A43426004E042680123DB059A4342605D
:1013800070474269120E1206426142690A43426185
:101390007047028AFF231B021A400282028A0A4314
:1013A00002827047002904D0026802231A430260B7
:1013B00003E0026802239A430260704782680323B5
:1013C0001B059A43826082680A4382607047002945
:1013D00005D0426801231B051A43426004E04268BD
:1013E00001231B059A4342607047426803235B0553
:1013F0009A43426042680A4342607047C1690122D1
:10140000D2039143C1617047CA05D20D028570476E
:101410000146888CC005C00D704742681202120A4E
:10142000426042680B061A4342607047002905D0AB
:10143000026801235B031A43026004E0026801238F
:101440005B039A430260704702680123DB029A4300
:10145000026002680A4302607047426810239A43A0
:10146000426042680A4342607047426820239A43C0
:10147000426042680A4342607047002905D04268D2
:1014800001239B031A43426004E0426801239B034B
:101490009A4342607047002904D0826808231A43A7
:1014A000826003E0826808239A4382607047028A60
:1014B000D2B20282028A0B021A43028270470029CA
:1014C00004D0826820231A43826003E082682023CC
:1014D0009A4382607047002904D0826810231A431F
:1014E000826003E0826810239A43826070478268BA
:1014F00007235B049A43826082684B041A4382602C
:10150000704742691202120A426142690B061A438D
:10151000426170470038014000440040F3E9FFFF9A
:10152000826804239A43826082680A43826070471B
:10153000002904D0826802231A43826003E0826893
:1015400002239A4382607047002905D082680123F4
:101550009B031A43826004E0826801239B039A4341
:101560008260704782680123DB039A43826082684D
:101570000A438260704702681F235B059A4302603A
:1015800002684B051A430260704702681F231B0460
:101590009A43026002680B041A4302607047002AF3
:1015A00003D083680B43836002E083688B438360CE
:1015B0007047826801235B039A43826082680A4312
:1015C00082607047F8B50346002400260096002587
:1015D000002018460E04340ECEB200960127009E5D
:1015E000B7403D46022C01D1001D02E0032C00D182
:1015F0000830002A03D006682E43066002E0066821
:10160000AE430660F8BD002A03D0038B0B4303836F
:1016100002E0038B8B4303837047826801231B0323
:101620009A43826082680A438260704702460020C3
:10163000D3690B40002B01D0012000E0002070474F
:101640000162704770B502460B4600240021002558
:1016500000201E04350ED9B201268E403146012DE0
:1016600002D11668314006E0022D02D156683140A1
:1016700001E0966831401C0C0126A6403446D6692C
:101680003440002903D0002C01D0012000E00020CC
:1016900070BD10B5002300220B0C01249C40224693
:1016A000026210BD1CB501214804FFF740F910206B
:1016B00000900121684641710171002181716946E4
:1016C0000920C006FEF700FE1CBD10B51021092040
:1016D000C006FEF778FE10BD10B510210920C00627
:1016E000FEF76FFE10BD00002A4909884143491EDC
:1016F000294A516101219161114609690122114371
:10170000254A116100BF24490969012212041140D0
:101710000029F8D020490969490849001E4A116189
:1017200070471D490969042291431B4A1161114602
:10173000096902229143184A1161C217520F121807
:101740005205120E154B1A70194609787D22D200E7
:101750005143104A11807047104909784143491E8E
:101760000D4A51610121916111460969012211431C
:10177000094A116100BF0849096901221204114098
:101780000029F8D00449096949084900024A116151
:10179000704700001000002000E000E01200002070
:1017A00000BF704700BF3F4AD26980231A40002A19
:1017B000F9D03C4B20331881704710B58AB00446ED
:1017C00001214804FFF7B3F801218803FFF7BDF8B2
:1017D00001220921C806FEF700FE01220A21092084
:1017E000C006FEF7FAFD032040020890022108A877
:1017F000017103214171002181710121C17108A989
:101800000920C006FEF760FD0294002003900490BA
:10181000059007900C20069002A92248FFF7A4FC2F
:10182000012221491F48FFF7CDFE01211D48FFF786
:1018300034FD1B2168460171022141710121817132
:1018400001A8FFF7A3FB0AB010BD18490860704754
:10185000F8B504460D462746002605E039787F1C7A
:101860001048FFF7D1FD761CAE42F7DBF8BD10B58E
:101870000D490C48FFF7E6FE002812D00948FFF793
:10188000C7FDC4B209480068002803D020460749B4
:101890000968884700BF80210248FFF7C7FE00287B
:1018A000F9D010BD003801400501050018000020E6
:1018B0001CB501214804FFF73AF800216846017180
:1018C0000121C1710120009069460920C006FEF780
:1018D000FBFC1CBD00B585B001210846FFF735F8BB
:1018E00001214804FFF723F8802003900021684677
:1018F0000174022141740121C17403A90920C006A9
:10190000FEF7E2FC07210020FFF7D6FB8020FFF75F
:1019100033FB802001900021684601720C21417246
:101920000121817201A8FFF7B7FA0721684601700B
:10193000012141708170FFF729FB05B000BD10B592
:101940008020FFF707FB002805D003A000F0C8F9AE
:101950008020FFF711FB10BD504137CFECD3A6D24A
:10196000BBB4CECFC2BDB5D1D8B4A5B7A2D6D0B680
:10197000CF0D0A0000B593B001214804FEF7D7FF50
:1019800002201190032110A801720021C17211A937
:101990000920C006FEF798FC01214802FEF7D5FF9A
:1019A00001210846FEF7C3FF3848FFF73FF83848E3
:1019B000FFF7B0F9354840300690364807900020D0
:1019C00008900420099000200A9080200B9040008D
:1019D0000C9080000D9020200E9000020F900020AF
:1019E000109006A92A48FFF7E1F901212848FFF7DE
:1019F00007FA02212548FFF747F901212348FFF79D
:101A000037F96846FFF734F8002000900121684656
:101A100001710020029004900420059069461B4843
:101A2000FFF712F8072202211848FFF7BFF8072234
:101A3000012149041548FFF7B9F80120FFF792F892
:101A40000722012109041148FFF7B0F80120FFF730
:101A500077F80722012189040C48FFF7A7F8012035
:101A6000FFF792F80948FFF7D7F801210748FFF779
:101A700007F800BF08490548FFF718F90028F9D012
:101A80000248FFF7ECF813B000BD0000002401404D
:101A9000080002402C000020010000010748804798
:101AA00007480047FEE7FEE7FEE7FEE7FEE7FEE742
:101AB00004480549054A064B70470000B51B00085D
:101AC000B1000008A8000020A8060020A8020020FD
:101AD000A80200200CB50020019000907748006813
:101AE0000121090408437549086000BF7348006874
:101AF00001214904084000900198401C0190009881
:101B0000002804D10521090301988842EED16B48D1
:101B10000068012149040840002802D001200090FB
:101B200001E0002000900098012842D1644800683C
:101B300010210843624908600846006801210843F3
:101B40005F4908605D4840685C49486008464068F5
:101B50004860084640683F21090488435749486067
:101B60000846406811210904084354494860084662
:101B700000680121090608435049086000BF4F482A
:101B800000680121490608400028F8D04B48406809
:101B9000800880004949486008464068022108439F
:101BA0004649486000BF454840680C210840082865
:101BB000F9D10CBD10B541480068012108433F49E7
:101BC0000860084640683F4908403C49486008466C
:101BD00000683D490840394908600846006801210D
:101BE0008904884335490860084640683F21090454
:101BF0008843324948600846C06A00090001C8624B
:101C00000846006BFF21543188432C49086308467D
:101C1000406B40084000486300208860FFF75AFF8F
:101C200010BDF8B500250024002600272348406891
:101C30000C2108400546002D04D0042D06D0082DA7
:101C40002AD107E021482249086029E01F4820499D
:101C5000086025E0194840680F21890408400446BF
:101C6000164840680121090408400646A00C841C5F
:101C7000002E04D117486043154908600BE00F4857
:101C8000C06A0007000F471C3946104800F0CEF824
:101C900060430F49086003E00C480D49086000BF2D
:101CA00000BF06484068F021084000090A490D5C61
:101CB00007480068E84006490860F8BD0010024087
:101CC000002002400CB8FFF8FFFFF6FE00127A0079
:101CD0003400002000093D0038000020704700005B
:101CE0000FB4054910B503AA029800F0A9F910BC79
:101CF00008BC04B01847000014000020F8B50E46D8
:101D00000446002020622046E1688847002829D048
:101D1000252802D06268A16820E0E16820460027FB
:101D2000884705001ED028464138192802D80127C7
:101D3000FF0220353246204627602946FEF7F6F995
:101D4000002808D0012804D0F61DF608F600083651
:101D5000D9E7361DD7E762682846A1689047206A10
:101D6000401CCFE7206AF8BDF7B50025752910683B
:101D7000009914A611D0C046C046002802DA40429D
:101D800011A608E0009909688A0701D50FA602E0AC
:101D9000490704D50EA6012501E0C046C046009FB4
:101DA0000024243704E000F05FF930313955641C19
:101DB0000028F8D12B4632462146009800F0E7F87B
:101DC000FEBD0000000000002D0000002B00000000
:101DD0002000000070B504460D4621461068C0463C
:101DE000C0462188090502D50F4A7A4402E00E4A0E
:101DF0007A440E3223460021243305E00607000909
:101E0000360F965D5E54491C0028F7D120780023D8
:101E1000000705D5702D03D0002901D0022311320F
:101E2000204600F0B4F870BD2E0300000022030924
:101E30008B422CD3030A8B4211D300239C464EE0E5
:101E400003460B433CD4002243088B4231D30309A1
:101E50008B421CD3030A8B4201D394463FE0C30953
:101E60008B4201D3CB01C01A524183098B4201D36B
:101E70008B01C01A524143098B4201D34B01C01A56
:101E8000524103098B4201D30B01C01A5241C308CE
:101E90008B4201D3CB00C01A524183088B4201D33D
:101EA0008B00C01A524143088B4201D34B00C01A29
:101EB0005241411A00D201465241104670475DE03E
:101EC000CA0F00D04942031000D3404253400022C1
:101ED0009C4603098B422DD3030A8B4212D3FC226A
:101EE000890112BA030A8B420CD3890192118B42E9
:101EF00008D3890192118B4204D389013AD09211FF
:101F000000E08909C3098B4201D3CB01C01A5241B9
:101F100083098B4201D38B01C01A524143098B4282
:101F200001D34B01C01A524103098B4201D30B016B
:101F3000C01A5241C3088B4201D3CB00C01A524190
:101F400083088B4201D38B00C01A5241D9D2430877
:101F50008B4201D34B00C01A5241411A00D20146B4
:101F6000634652415B10104601D34042002B00D51E
:101F70004942704763465B1000D3404201B50020E0
:101F8000C046C04602BD7047704770477047FFB5F6
:101F900004460D4681B0243000902168880604D59F
:101FA0001022E0699143216000E00120A84201DD98
:101FB000471B00E000270498A1697A191018081A35
:101FC000A0612078C00602D42046C046C046002644
:101FD00008E003986268A168805D9047206A401C11
:101FE000761C206204988642F3DB2078C0060AD56E
:101FF0002046C046C04606E06268A168302090478F
:10200000206A401C206238467F1E0028F4DC07E06E
:1020100000986268A168405D9047206A401C206279
:1020200028466D1E0028F3DC2046C046C0462078B6
:10203000000602D5022005B0F0BD0120FBE700003C
:10204000084B70B50D467B4400F027F8044628463F
:1020500000F036F8002802D00020C04370BD2046B2
:1020600070BD00005BF7FFFF01468008081A0209F7
:102070001018020A1018020C1018C008820012185A
:102080005200891A01E0401C0A390A29FBD2704724
:1020900001694A1C02610878704700B58FB002914F
:1020A000002105910549019379440391114604905B
:1020B0006846FFF723FE0FB000BD0000E5FFFFFFFD
:1020C000C068802108407047754600F023F8AE468E
:1020D000050069465346C008C000854618B020B5C3
:1020E000FFF7E6FC60BC00274908B6460026C0C5DD
:1020F000C0C5C0C5C0C5C0C5C0C5C0C5C0C5403DC0
:1021000049008D4670470446C046C0462046FEF74B
:1021100027F8000000487047480000203031323373
:10212000343536373839414243444546403058000B
:10213000303132333435363738396162636465663D
:1021400040307800642100080000002048000000B2
:10215000F4000008AC2100084800002060060000E0
:102160001001000800000000010203040102030442
:102170000607080900000000000000000000000041
:10218000000000000000000000000000000000004F
:102190000000000000000000006CDC0200000000F5
:0C21A0000000000001020304060708090B
:04000005080000B13E
:00000001FF
